{
  "contractName": "FantiumMetaToken",
  "abi": [
    {
      "inputs": [],
      "stateMutability": "nonpayable",
      "type": "constructor"
    },
    {
      "anonymous": false,
      "inputs": [
        {
          "indexed": true,
          "internalType": "address",
          "name": "account",
          "type": "address"
        },
        {
          "indexed": true,
          "internalType": "address",
          "name": "operator",
          "type": "address"
        },
        {
          "indexed": false,
          "internalType": "bool",
          "name": "approved",
          "type": "bool"
        }
      ],
      "name": "ApprovalForAll",
      "type": "event"
    },
    {
      "anonymous": false,
      "inputs": [
        {
          "indexed": false,
          "internalType": "address",
          "name": "addr",
          "type": "address"
        },
        {
          "indexed": false,
          "internalType": "uint256",
          "name": "collectionId",
          "type": "uint256"
        }
      ],
      "name": "MinterAllowed",
      "type": "event"
    },
    {
      "anonymous": false,
      "inputs": [
        {
          "indexed": false,
          "internalType": "address",
          "name": "addr",
          "type": "address"
        },
        {
          "indexed": false,
          "internalType": "uint256",
          "name": "collectionId",
          "type": "uint256"
        }
      ],
      "name": "MinterRevoked",
      "type": "event"
    },
    {
      "anonymous": false,
      "inputs": [
        {
          "indexed": false,
          "internalType": "string",
          "name": "description",
          "type": "string"
        },
        {
          "indexed": false,
          "internalType": "uint256",
          "name": "collectionId",
          "type": "uint256"
        },
        {
          "indexed": false,
          "internalType": "int256",
          "name": "correlationId",
          "type": "int256"
        }
      ],
      "name": "NewCollection",
      "type": "event"
    },
    {
      "anonymous": false,
      "inputs": [
        {
          "indexed": true,
          "internalType": "address",
          "name": "previousOwner",
          "type": "address"
        },
        {
          "indexed": true,
          "internalType": "address",
          "name": "newOwner",
          "type": "address"
        }
      ],
      "name": "OwnershipTransferred",
      "type": "event"
    },
    {
      "anonymous": false,
      "inputs": [
        {
          "indexed": false,
          "internalType": "address",
          "name": "owner",
          "type": "address"
        },
        {
          "indexed": false,
          "internalType": "uint256",
          "name": "tokenId",
          "type": "uint256"
        },
        {
          "indexed": false,
          "internalType": "uint256",
          "name": "collectionId",
          "type": "uint256"
        },
        {
          "indexed": false,
          "internalType": "string",
          "name": "tokenUri",
          "type": "string"
        },
        {
          "indexed": false,
          "internalType": "uint256",
          "name": "share",
          "type": "uint256"
        }
      ],
      "name": "TokenMinted",
      "type": "event"
    },
    {
      "anonymous": false,
      "inputs": [
        {
          "indexed": true,
          "internalType": "address",
          "name": "operator",
          "type": "address"
        },
        {
          "indexed": true,
          "internalType": "address",
          "name": "from",
          "type": "address"
        },
        {
          "indexed": true,
          "internalType": "address",
          "name": "to",
          "type": "address"
        },
        {
          "indexed": false,
          "internalType": "uint256[]",
          "name": "ids",
          "type": "uint256[]"
        },
        {
          "indexed": false,
          "internalType": "uint256[]",
          "name": "values",
          "type": "uint256[]"
        }
      ],
      "name": "TransferBatch",
      "type": "event"
    },
    {
      "anonymous": false,
      "inputs": [
        {
          "indexed": true,
          "internalType": "address",
          "name": "operator",
          "type": "address"
        },
        {
          "indexed": true,
          "internalType": "address",
          "name": "from",
          "type": "address"
        },
        {
          "indexed": true,
          "internalType": "address",
          "name": "to",
          "type": "address"
        },
        {
          "indexed": false,
          "internalType": "uint256",
          "name": "id",
          "type": "uint256"
        },
        {
          "indexed": false,
          "internalType": "uint256",
          "name": "value",
          "type": "uint256"
        }
      ],
      "name": "TransferSingle",
      "type": "event"
    },
    {
      "anonymous": false,
      "inputs": [
        {
          "indexed": false,
          "internalType": "string",
          "name": "value",
          "type": "string"
        },
        {
          "indexed": true,
          "internalType": "uint256",
          "name": "id",
          "type": "uint256"
        }
      ],
      "name": "URI",
      "type": "event"
    },
    {
      "inputs": [],
      "name": "MAX_TOKENS_PER_COLLECTION",
      "outputs": [
        {
          "internalType": "uint256",
          "name": "",
          "type": "uint256"
        }
      ],
      "stateMutability": "view",
      "type": "function",
      "constant": true
    },
    {
      "inputs": [
        {
          "internalType": "address",
          "name": "account",
          "type": "address"
        },
        {
          "internalType": "uint256",
          "name": "id",
          "type": "uint256"
        }
      ],
      "name": "balanceOf",
      "outputs": [
        {
          "internalType": "uint256",
          "name": "",
          "type": "uint256"
        }
      ],
      "stateMutability": "view",
      "type": "function",
      "constant": true
    },
    {
      "inputs": [
        {
          "internalType": "address[]",
          "name": "accounts",
          "type": "address[]"
        },
        {
          "internalType": "uint256[]",
          "name": "ids",
          "type": "uint256[]"
        }
      ],
      "name": "balanceOfBatch",
      "outputs": [
        {
          "internalType": "uint256[]",
          "name": "",
          "type": "uint256[]"
        }
      ],
      "stateMutability": "view",
      "type": "function",
      "constant": true
    },
    {
      "inputs": [
        {
          "internalType": "uint256",
          "name": "",
          "type": "uint256"
        }
      ],
      "name": "collections",
      "outputs": [
        {
          "internalType": "string",
          "name": "description",
          "type": "string"
        },
        {
          "internalType": "uint256",
          "name": "shareLeft",
          "type": "uint256"
        },
        {
          "internalType": "uint256",
          "name": "supply",
          "type": "uint256"
        }
      ],
      "stateMutability": "view",
      "type": "function",
      "constant": true
    },
    {
      "inputs": [
        {
          "internalType": "uint256",
          "name": "id",
          "type": "uint256"
        }
      ],
      "name": "exists",
      "outputs": [
        {
          "internalType": "bool",
          "name": "",
          "type": "bool"
        }
      ],
      "stateMutability": "view",
      "type": "function",
      "constant": true
    },
    {
      "inputs": [
        {
          "internalType": "address",
          "name": "account",
          "type": "address"
        },
        {
          "internalType": "address",
          "name": "operator",
          "type": "address"
        }
      ],
      "name": "isApprovedForAll",
      "outputs": [
        {
          "internalType": "bool",
          "name": "",
          "type": "bool"
        }
      ],
      "stateMutability": "view",
      "type": "function",
      "constant": true
    },
    {
      "inputs": [],
      "name": "owner",
      "outputs": [
        {
          "internalType": "address",
          "name": "",
          "type": "address"
        }
      ],
      "stateMutability": "view",
      "type": "function",
      "constant": true
    },
    {
      "inputs": [],
      "name": "renounceOwnership",
      "outputs": [],
      "stateMutability": "nonpayable",
      "type": "function"
    },
    {
      "inputs": [
        {
          "internalType": "address",
          "name": "from",
          "type": "address"
        },
        {
          "internalType": "address",
          "name": "to",
          "type": "address"
        },
        {
          "internalType": "uint256[]",
          "name": "ids",
          "type": "uint256[]"
        },
        {
          "internalType": "uint256[]",
          "name": "amounts",
          "type": "uint256[]"
        },
        {
          "internalType": "bytes",
          "name": "data",
          "type": "bytes"
        }
      ],
      "name": "safeBatchTransferFrom",
      "outputs": [],
      "stateMutability": "nonpayable",
      "type": "function"
    },
    {
      "inputs": [
        {
          "internalType": "address",
          "name": "from",
          "type": "address"
        },
        {
          "internalType": "address",
          "name": "to",
          "type": "address"
        },
        {
          "internalType": "uint256",
          "name": "id",
          "type": "uint256"
        },
        {
          "internalType": "uint256",
          "name": "amount",
          "type": "uint256"
        },
        {
          "internalType": "bytes",
          "name": "data",
          "type": "bytes"
        }
      ],
      "name": "safeTransferFrom",
      "outputs": [],
      "stateMutability": "nonpayable",
      "type": "function"
    },
    {
      "inputs": [
        {
          "internalType": "address",
          "name": "operator",
          "type": "address"
        },
        {
          "internalType": "bool",
          "name": "approved",
          "type": "bool"
        }
      ],
      "name": "setApprovalForAll",
      "outputs": [],
      "stateMutability": "nonpayable",
      "type": "function"
    },
    {
      "inputs": [
        {
          "internalType": "bytes4",
          "name": "interfaceId",
          "type": "bytes4"
        }
      ],
      "name": "supportsInterface",
      "outputs": [
        {
          "internalType": "bool",
          "name": "",
          "type": "bool"
        }
      ],
      "stateMutability": "view",
      "type": "function",
      "constant": true
    },
    {
      "inputs": [
        {
          "internalType": "uint256",
          "name": "id",
          "type": "uint256"
        }
      ],
      "name": "totalSupply",
      "outputs": [
        {
          "internalType": "uint256",
          "name": "",
          "type": "uint256"
        }
      ],
      "stateMutability": "view",
      "type": "function",
      "constant": true
    },
    {
      "inputs": [
        {
          "internalType": "address",
          "name": "newOwner",
          "type": "address"
        }
      ],
      "name": "transferOwnership",
      "outputs": [],
      "stateMutability": "nonpayable",
      "type": "function"
    },
    {
      "inputs": [
        {
          "internalType": "string",
          "name": "description",
          "type": "string"
        },
        {
          "internalType": "int256",
          "name": "correlationId",
          "type": "int256"
        }
      ],
      "name": "addNewCollection",
      "outputs": [],
      "stateMutability": "nonpayable",
      "type": "function"
    },
    {
      "inputs": [
        {
          "internalType": "uint256",
          "name": "collection",
          "type": "uint256"
        },
        {
          "internalType": "address",
          "name": "allowedAddress",
          "type": "address"
        }
      ],
      "name": "allowMinter",
      "outputs": [],
      "stateMutability": "nonpayable",
      "type": "function"
    },
    {
      "inputs": [
        {
          "internalType": "uint256",
          "name": "collection",
          "type": "uint256"
        },
        {
          "internalType": "address",
          "name": "revokedAddress",
          "type": "address"
        }
      ],
      "name": "revokeMinter",
      "outputs": [],
      "stateMutability": "nonpayable",
      "type": "function"
    },
    {
      "inputs": [
        {
          "internalType": "uint256",
          "name": "collection",
          "type": "uint256"
        },
        {
          "internalType": "address",
          "name": "addr",
          "type": "address"
        }
      ],
      "name": "isAllowedToMint",
      "outputs": [
        {
          "internalType": "bool",
          "name": "",
          "type": "bool"
        }
      ],
      "stateMutability": "view",
      "type": "function",
      "constant": true
    },
    {
      "inputs": [
        {
          "internalType": "address",
          "name": "account",
          "type": "address"
        },
        {
          "internalType": "uint256",
          "name": "id",
          "type": "uint256"
        },
        {
          "internalType": "uint256",
          "name": "amount",
          "type": "uint256"
        },
        {
          "internalType": "bytes",
          "name": "data",
          "type": "bytes"
        }
      ],
      "name": "mint",
      "outputs": [],
      "stateMutability": "nonpayable",
      "type": "function"
    },
    {
      "inputs": [
        {
          "internalType": "address",
          "name": "to",
          "type": "address"
        },
        {
          "internalType": "uint256[]",
          "name": "ids",
          "type": "uint256[]"
        },
        {
          "internalType": "uint256[]",
          "name": "amounts",
          "type": "uint256[]"
        },
        {
          "internalType": "bytes",
          "name": "data",
          "type": "bytes"
        }
      ],
      "name": "mintBatch",
      "outputs": [],
      "stateMutability": "nonpayable",
      "type": "function"
    },
    {
      "inputs": [
        {
          "internalType": "uint256",
          "name": "tokenId",
          "type": "uint256"
        }
      ],
      "name": "uri",
      "outputs": [
        {
          "internalType": "string",
          "name": "",
          "type": "string"
        }
      ],
      "stateMutability": "view",
      "type": "function",
      "constant": true
    },
    {
      "inputs": [
        {
          "internalType": "uint256",
          "name": "collectionId",
          "type": "uint256"
        }
      ],
      "name": "collectionTotalSupply",
      "outputs": [
        {
          "internalType": "uint256",
          "name": "",
          "type": "uint256"
        }
      ],
      "stateMutability": "view",
      "type": "function",
      "constant": true
    },
    {
      "inputs": [
        {
          "internalType": "uint256",
          "name": "tokenId",
          "type": "uint256"
        }
      ],
      "name": "getTokenInfo",
      "outputs": [
        {
          "internalType": "uint256",
          "name": "",
          "type": "uint256"
        },
        {
          "internalType": "string",
          "name": "",
          "type": "string"
        }
      ],
      "stateMutability": "view",
      "type": "function",
      "constant": true
    },
    {
      "inputs": [
        {
          "internalType": "string",
          "name": "s",
          "type": "string"
        }
      ],
      "name": "stringToUint",
      "outputs": [
        {
          "internalType": "uint256",
          "name": "",
          "type": "uint256"
        }
      ],
      "stateMutability": "pure",
      "type": "function",
      "constant": true
    }
  ],
  "bytecode": "0x60806040523480156200001157600080fd5b506040518060600160405280603581526020016200593e603591396200003d81620000b260201b60201c565b506200005e62000052620000c760201b60201c565b620000cf60201b60201c565b620000a46040518060400160405280601581526020017f68747470733a2f2f697066732e696f2f697066732f00000000000000000000008152506200019560201b60201c565b60006005819055506200050b565b8060029081620000c3919062000424565b5050565b600033905090565b6000600360009054906101000a900473ffffffffffffffffffffffffffffffffffffffff16905081600360006101000a81548173ffffffffffffffffffffffffffffffffffffffff021916908373ffffffffffffffffffffffffffffffffffffffff1602179055508173ffffffffffffffffffffffffffffffffffffffff168173ffffffffffffffffffffffffffffffffffffffff167f8be0079c531659141344cd1fd0a4f28419497f9722a3daafe3b4186f6b6457e060405160405180910390a35050565b8060069081620001a6919062000424565b5050565b600081519050919050565b7f4e487b7100000000000000000000000000000000000000000000000000000000600052604160045260246000fd5b7f4e487b7100000000000000000000000000000000000000000000000000000000600052602260045260246000fd5b600060028204905060018216806200022c57607f821691505b602082108103620002425762000241620001e4565b5b50919050565b60008190508160005260206000209050919050565b60006020601f8301049050919050565b600082821b905092915050565b600060088302620002ac7fffffffffffffffffffffffffffffffffffffffffffffffffffffffffffffffff826200026d565b620002b886836200026d565b95508019841693508086168417925050509392505050565b6000819050919050565b6000819050919050565b600062000305620002ff620002f984620002d0565b620002da565b620002d0565b9050919050565b6000819050919050565b6200032183620002e4565b6200033962000330826200030c565b8484546200027a565b825550505050565b600090565b6200035062000341565b6200035d81848462000316565b505050565b5b8181101562000385576200037960008262000346565b60018101905062000363565b5050565b601f821115620003d4576200039e8162000248565b620003a9846200025d565b81016020851015620003b9578190505b620003d1620003c8856200025d565b83018262000362565b50505b505050565b600082821c905092915050565b6000620003f960001984600802620003d9565b1980831691505092915050565b6000620004148383620003e6565b9150826002028217905092915050565b6200042f82620001aa565b67ffffffffffffffff8111156200044b576200044a620001b5565b5b62000457825462000213565b6200046482828562000389565b600060209050601f8311600181146200049c576000841562000487578287015190505b62000493858262000406565b86555062000503565b601f198416620004ac8662000248565b60005b82811015620004d657848901518255600182019150602085019450602081019050620004af565b86831015620004f65784890151620004f2601f891682620003e6565b8355505b6001600288020188555050505b505050505050565b615423806200051b6000396000f3fe608060405234801561001057600080fd5b50600436106101575760003560e01c8063731133e9116100c3578063bd85b0391161007c578063bd85b039146103fb578063e2de86a41461042b578063e985e9c514610447578063f242432a14610477578063f2fde38b14610493578063fdbda0ec146104af57610157565b8063731133e91461033a5780638c7a63ae146103565780638da5cb5b146103875780639dcb692a146103a5578063a22cb465146103c1578063aaab3c3f146103dd57610157565b80632eb2c2d6116101155780632eb2c2d61461025457806330416f69146102705780634e1273f4146102a05780634f558e79146102d057806359a88f5c14610300578063715018a61461033057610157565b8062fdd58e1461015c57806301ffc9a71461018c57806303f4f3ad146101bc5780630e89341c146101d85780631bd95155146102085780631f7fdffa14610238575b600080fd5b6101766004803603810190610171919061325c565b6104e1565b60405161018391906132ab565b60405180910390f35b6101a660048036038101906101a1919061331e565b6105a9565b6040516101b39190613366565b60405180910390f35b6101d660048036038101906101d19190613381565b61068b565b005b6101f260048036038101906101ed91906133c1565b6108b7565b6040516101ff919061347e565b60405180910390f35b610222600480360381019061021d91906135d5565b61099c565b60405161022f91906132ab565b60405180910390f35b610252600480360381019061024d9190613787565b610a34565b005b61026e60048036038101906102699190613842565b610a46565b005b61028a60048036038101906102859190613381565b610ae7565b6040516102979190613366565b60405180910390f35b6102ba60048036038101906102b591906139d4565b610b8f565b6040516102c79190613b0a565b60405180910390f35b6102ea60048036038101906102e591906133c1565b610ca8565b6040516102f79190613366565b60405180910390f35b61031a600480360381019061031591906133c1565b610cbc565b60405161032791906132ab565b60405180910390f35b610338610cdc565b005b610354600480360381019061034f9190613b2c565b610cf0565b005b610370600480360381019061036b91906133c1565b610d02565b60405161037e929190613baf565b60405180910390f35b61038f610dc8565b60405161039c9190613bee565b60405180910390f35b6103bf60048036038101906103ba9190613c3f565b610df2565b005b6103db60048036038101906103d69190613cc7565b610e91565b005b6103e5610ea7565b6040516103f291906132ab565b60405180910390f35b610415600480360381019061041091906133c1565b610eae565b60405161042291906132ab565b60405180910390f35b61044560048036038101906104409190613381565b610ecb565b005b610461600480360381019061045c9190613d07565b611081565b60405161046e9190613366565b60405180910390f35b610491600480360381019061048c9190613d47565b611115565b005b6104ad60048036038101906104a89190613dde565b6111b6565b005b6104c960048036038101906104c491906133c1565b611239565b6040516104d893929190613e0b565b60405180910390f35b60008073ffffffffffffffffffffffffffffffffffffffff168373ffffffffffffffffffffffffffffffffffffffff1603610551576040517f08c379a000000000000000000000000000000000000000000000000000000000815260040161054890613ebb565b60405180910390fd5b60008083815260200190815260200160002060008473ffffffffffffffffffffffffffffffffffffffff1673ffffffffffffffffffffffffffffffffffffffff16815260200190815260200160002054905092915050565b60007fd9b67a26000000000000000000000000000000000000000000000000000000007bffffffffffffffffffffffffffffffffffffffffffffffffffffffff1916827bffffffffffffffffffffffffffffffffffffffffffffffffffffffff1916148061067457507f0e89341c000000000000000000000000000000000000000000000000000000007bffffffffffffffffffffffffffffffffffffffffffffffffffffffff1916827bffffffffffffffffffffffffffffffffffffffffffffffffffffffff1916145b806106845750610683826112eb565b5b9050919050565b610693611355565b60006007600084815260200190815260200160002060000180546106b690613f0a565b9050116106f8576040517f08c379a00000000000000000000000000000000000000000000000000000000081526004016106ef90613f87565b60405180910390fd5b610700610dc8565b73ffffffffffffffffffffffffffffffffffffffff168173ffffffffffffffffffffffffffffffffffffffff160361076d576040517f08c379a000000000000000000000000000000000000000000000000000000000815260040161076490614019565b60405180910390fd5b6007600083815260200190815260200160002060030160008273ffffffffffffffffffffffffffffffffffffffff1673ffffffffffffffffffffffffffffffffffffffff16815260200190815260200160002060009054906101000a900460ff161561080e576040517f08c379a000000000000000000000000000000000000000000000000000000000815260040161080590614085565b60405180910390fd5b60016007600084815260200190815260200160002060030160008373ffffffffffffffffffffffffffffffffffffffff1673ffffffffffffffffffffffffffffffffffffffff16815260200190815260200160002060006101000a81548160ff0219169083151502179055507f6350ebc7ed66940ba25f53c8a652876e3dbbbba9a249cffa2542d6c86de0680781836040516108ab9291906140a5565b60405180910390a15050565b606060006009600084815260200190815260200160002080546108d990613f0a565b80601f016020809104026020016040519081016040528092919081815260200182805461090590613f0a565b80156109525780601f1061092757610100808354040283529160200191610952565b820191906000526020600020905b81548152906001019060200180831161093557829003601f168201915b5050505050905060008151116109705761096b836113d3565b610994565b6006816040516020016109849291906141ee565b6040516020818303038152906040525b915050919050565b6000808290506000805b8251811015610a295760008382815181106109c4576109c361421d565b5b602001015160f81c60f81b60f81c60ff169050603081101580156109e9575060398111155b15610a15576030816109fb919061427b565b600a84610a0891906142af565b610a1291906142f1565b92505b508080610a2190614325565b9150506109a6565b508092505050919050565b610a4084848484611467565b50505050565b610a4e611693565b73ffffffffffffffffffffffffffffffffffffffff168573ffffffffffffffffffffffffffffffffffffffff161480610a945750610a9385610a8e611693565b611081565b5b610ad3576040517f08c379a0000000000000000000000000000000000000000000000000000000008152600401610aca906143df565b60405180910390fd5b610ae0858585858561169b565b5050505050565b60008173ffffffffffffffffffffffffffffffffffffffff16610b08610dc8565b73ffffffffffffffffffffffffffffffffffffffff161480610b8757506007600084815260200190815260200160002060030160008373ffffffffffffffffffffffffffffffffffffffff1673ffffffffffffffffffffffffffffffffffffffff16815260200190815260200160002060009054906101000a900460ff165b905092915050565b60608151835114610bd5576040517f08c379a0000000000000000000000000000000000000000000000000000000008152600401610bcc90614471565b60405180910390fd5b6000835167ffffffffffffffff811115610bf257610bf16134aa565b5b604051908082528060200260200182016040528015610c205781602001602082028036833780820191505090505b50905060005b8451811015610c9d57610c6d858281518110610c4557610c4461421d565b5b6020026020010151858381518110610c6057610c5f61421d565b5b60200260200101516104e1565b828281518110610c8057610c7f61421d565b5b60200260200101818152505080610c9690614325565b9050610c26565b508091505092915050565b600080610cb483610eae565b119050919050565b600060076000838152602001908152602001600020600201549050919050565b610ce4611355565b610cee60006119bc565b565b610cfc84848484611a82565b50505050565b60006060600860008481526020019081526020016000206002015460086000858152602001908152602001600020600301808054610d3f90613f0a565b80601f0160208091040260200160405190810160405280929190818152602001828054610d6b90613f0a565b8015610db85780601f10610d8d57610100808354040283529160200191610db8565b820191906000526020600020905b815481529060010190602001808311610d9b57829003601f168201915b5050505050905091509150915091565b6000600360009054906101000a900473ffffffffffffffffffffffffffffffffffffffff16905090565b610dfa611355565b6000600760006005548152602001908152602001600020905082816000019081610e249190614628565b50620186a08160010181905550600081600201819055507f4be3a6ad5f84aa1d192e780b08a102c4770c2657578785e765291aa21e260e748360056000815480929190610e7090614325565b9190505584604051610e8493929190614709565b60405180910390a1505050565b610ea3610e9c611693565b8383611c32565b5050565b620186a081565b600060046000838152602001908152602001600020549050919050565b610ed3611355565b6000600760008481526020019081526020016000206000018054610ef690613f0a565b905011610f38576040517f08c379a0000000000000000000000000000000000000000000000000000000008152600401610f2f90613f87565b60405180910390fd5b6007600083815260200190815260200160002060030160008273ffffffffffffffffffffffffffffffffffffffff1673ffffffffffffffffffffffffffffffffffffffff16815260200190815260200160002060009054906101000a900460ff16610fd8576040517f08c379a0000000000000000000000000000000000000000000000000000000008152600401610fcf90614793565b60405180910390fd5b60006007600084815260200190815260200160002060030160008373ffffffffffffffffffffffffffffffffffffffff1673ffffffffffffffffffffffffffffffffffffffff16815260200190815260200160002060006101000a81548160ff0219169083151502179055507fa3e2bd1dce9cda387fcfca0a01087ea6bee62e6ff0b692965c749d6ce09eebbc81836040516110759291906140a5565b60405180910390a15050565b6000600160008473ffffffffffffffffffffffffffffffffffffffff1673ffffffffffffffffffffffffffffffffffffffff16815260200190815260200160002060008373ffffffffffffffffffffffffffffffffffffffff1673ffffffffffffffffffffffffffffffffffffffff16815260200190815260200160002060009054906101000a900460ff16905092915050565b61111d611693565b73ffffffffffffffffffffffffffffffffffffffff168573ffffffffffffffffffffffffffffffffffffffff16148061116357506111628561115d611693565b611081565b5b6111a2576040517f08c379a0000000000000000000000000000000000000000000000000000000008152600401611199906143df565b60405180910390fd5b6111af8585858585611d9e565b5050505050565b6111be611355565b600073ffffffffffffffffffffffffffffffffffffffff168173ffffffffffffffffffffffffffffffffffffffff160361122d576040517f08c379a000000000000000000000000000000000000000000000000000000000815260040161122490614825565b60405180910390fd5b611236816119bc565b50565b600760205280600052604060002060009150905080600001805461125c90613f0a565b80601f016020809104026020016040519081016040528092919081815260200182805461128890613f0a565b80156112d55780601f106112aa576101008083540402835291602001916112d5565b820191906000526020600020905b8154815290600101906020018083116112b857829003601f168201915b5050505050908060010154908060020154905083565b60007f01ffc9a7000000000000000000000000000000000000000000000000000000007bffffffffffffffffffffffffffffffffffffffffffffffffffffffff1916827bffffffffffffffffffffffffffffffffffffffffffffffffffffffff1916149050919050565b61135d611693565b73ffffffffffffffffffffffffffffffffffffffff1661137b610dc8565b73ffffffffffffffffffffffffffffffffffffffff16146113d1576040517f08c379a00000000000000000000000000000000000000000000000000000000081526004016113c890614891565b60405180910390fd5b565b6060600280546113e290613f0a565b80601f016020809104026020016040519081016040528092919081815260200182805461140e90613f0a565b801561145b5780601f106114305761010080835404028352916020019161145b565b820191906000526020600020905b81548152906001019060200180831161143e57829003601f168201915b50505050509050919050565b600073ffffffffffffffffffffffffffffffffffffffff168473ffffffffffffffffffffffffffffffffffffffff16036114d6576040517f08c379a00000000000000000000000000000000000000000000000000000000081526004016114cd90614923565b60405180910390fd5b815183511461151a576040517f08c379a0000000000000000000000000000000000000000000000000000000008152600401611511906149b5565b60405180910390fd5b6000611524611693565b905061153581600087878787612039565b60005b84518110156115ee578381815181106115545761155361421d565b5b60200260200101516000808784815181106115725761157161421d565b5b6020026020010151815260200190815260200160002060008873ffffffffffffffffffffffffffffffffffffffff1673ffffffffffffffffffffffffffffffffffffffff16815260200190815260200160002060008282546115d491906142f1565b9250508190555080806115e690614325565b915050611538565b508473ffffffffffffffffffffffffffffffffffffffff16600073ffffffffffffffffffffffffffffffffffffffff168273ffffffffffffffffffffffffffffffffffffffff167f4a39dc06d4c0dbc64b70af90fd698a233a518aa5d07e595d983b8c0526c8f7fb87876040516116669291906149d5565b60405180910390a461167d8160008787878761245a565b61168c81600087878787612462565b5050505050565b600033905090565b81518351146116df576040517f08c379a00000000000000000000000000000000000000000000000000000000081526004016116d6906149b5565b60405180910390fd5b600073ffffffffffffffffffffffffffffffffffffffff168473ffffffffffffffffffffffffffffffffffffffff160361174e576040517f08c379a000000000000000000000000000000000000000000000000000000000815260040161174590614a7e565b60405180910390fd5b6000611758611693565b9050611768818787878787612039565b60005b84518110156119195760008582815181106117895761178861421d565b5b6020026020010151905060008583815181106117a8576117a761421d565b5b60200260200101519050600080600084815260200190815260200160002060008b73ffffffffffffffffffffffffffffffffffffffff1673ffffffffffffffffffffffffffffffffffffffff16815260200190815260200160002054905081811015611849576040517f08c379a000000000000000000000000000000000000000000000000000000000815260040161184090614b10565b60405180910390fd5b81810360008085815260200190815260200160002060008c73ffffffffffffffffffffffffffffffffffffffff1673ffffffffffffffffffffffffffffffffffffffff168152602001908152602001600020819055508160008085815260200190815260200160002060008b73ffffffffffffffffffffffffffffffffffffffff1673ffffffffffffffffffffffffffffffffffffffff16815260200190815260200160002060008282546118fe91906142f1565b925050819055505050508061191290614325565b905061176b565b508473ffffffffffffffffffffffffffffffffffffffff168673ffffffffffffffffffffffffffffffffffffffff168273ffffffffffffffffffffffffffffffffffffffff167f4a39dc06d4c0dbc64b70af90fd698a233a518aa5d07e595d983b8c0526c8f7fb87876040516119909291906149d5565b60405180910390a46119a681878787878761245a565b6119b4818787878787612462565b505050505050565b6000600360009054906101000a900473ffffffffffffffffffffffffffffffffffffffff16905081600360006101000a81548173ffffffffffffffffffffffffffffffffffffffff021916908373ffffffffffffffffffffffffffffffffffffffff1602179055508173ffffffffffffffffffffffffffffffffffffffff168173ffffffffffffffffffffffffffffffffffffffff167f8be0079c531659141344cd1fd0a4f28419497f9722a3daafe3b4186f6b6457e060405160405180910390a35050565b600073ffffffffffffffffffffffffffffffffffffffff168473ffffffffffffffffffffffffffffffffffffffff1603611af1576040517f08c379a0000000000000000000000000000000000000000000000000000000008152600401611ae890614923565b60405180910390fd5b6000611afb611693565b90506000611b0885612639565b90506000611b1585612639565b9050611b2683600089858589612039565b8460008088815260200190815260200160002060008973ffffffffffffffffffffffffffffffffffffffff1673ffffffffffffffffffffffffffffffffffffffff1681526020019081526020016000206000828254611b8591906142f1565b925050819055508673ffffffffffffffffffffffffffffffffffffffff16600073ffffffffffffffffffffffffffffffffffffffff168473ffffffffffffffffffffffffffffffffffffffff167fc3d58168c5ae7397731d063d5bbf3d657854427343f4c083240f7aacaa2d0f628989604051611c03929190614b30565b60405180910390a4611c1a8360008985858961245a565b611c29836000898989896126b3565b50505050505050565b8173ffffffffffffffffffffffffffffffffffffffff168373ffffffffffffffffffffffffffffffffffffffff1603611ca0576040517f08c379a0000000000000000000000000000000000000000000000000000000008152600401611c9790614bcb565b60405180910390fd5b80600160008573ffffffffffffffffffffffffffffffffffffffff1673ffffffffffffffffffffffffffffffffffffffff16815260200190815260200160002060008473ffffffffffffffffffffffffffffffffffffffff1673ffffffffffffffffffffffffffffffffffffffff16815260200190815260200160002060006101000a81548160ff0219169083151502179055508173ffffffffffffffffffffffffffffffffffffffff168373ffffffffffffffffffffffffffffffffffffffff167f17307eab39ab6107e8899845ad3d59bd9653f200f220920489ca2b5937696c3183604051611d919190613366565b60405180910390a3505050565b600073ffffffffffffffffffffffffffffffffffffffff168473ffffffffffffffffffffffffffffffffffffffff1603611e0d576040517f08c379a0000000000000000000000000000000000000000000000000000000008152600401611e0490614a7e565b60405180910390fd5b6000611e17611693565b90506000611e2485612639565b90506000611e3185612639565b9050611e41838989858589612039565b600080600088815260200190815260200160002060008a73ffffffffffffffffffffffffffffffffffffffff1673ffffffffffffffffffffffffffffffffffffffff16815260200190815260200160002054905085811015611ed8576040517f08c379a0000000000000000000000000000000000000000000000000000000008152600401611ecf90614b10565b60405180910390fd5b85810360008089815260200190815260200160002060008b73ffffffffffffffffffffffffffffffffffffffff1673ffffffffffffffffffffffffffffffffffffffff168152602001908152602001600020819055508560008089815260200190815260200160002060008a73ffffffffffffffffffffffffffffffffffffffff1673ffffffffffffffffffffffffffffffffffffffff1681526020019081526020016000206000828254611f8d91906142f1565b925050819055508773ffffffffffffffffffffffffffffffffffffffff168973ffffffffffffffffffffffffffffffffffffffff168573ffffffffffffffffffffffffffffffffffffffff167fc3d58168c5ae7397731d063d5bbf3d657854427343f4c083240f7aacaa2d0f628a8a60405161200a929190614b30565b60405180910390a4612020848a8a86868a61245a565b61202e848a8a8a8a8a6126b3565b505050505050505050565b600073ffffffffffffffffffffffffffffffffffffffff168573ffffffffffffffffffffffffffffffffffffffff16036124445760006120788261288a565b905060006120ba6040518060400160405280600181526020017f2c0000000000000000000000000000000000000000000000000000000000000081525061288a565b9050600060016120ca84846128b8565b6120d491906142f1565b9050855181146120e357600080fd5b60005b865181101561243f5760006121148883815181106121075761210661421d565b5b6020026020010151610eae565b14612154576040517f08c379a000000000000000000000000000000000000000000000000000000000815260040161214b90614c37565b60405180910390fd5b6000620186a088838151811061216d5761216c61421d565b5b602002602001015161217f9190614c86565b9050620186a08161219091906142af565b8883815181106121a3576121a261421d565b5b60200260200101516121b5919061427b565b60076000838152602001908152602001600020600201541461220c576040517f08c379a000000000000000000000000000000000000000000000000000000000815260040161220390614d03565b60405180910390fd5b612216818c610ae7565b612255576040517f08c379a000000000000000000000000000000000000000000000000000000000815260040161224c90614d95565b60405180910390fd5b60006122696122648787612960565b61297a565b90506000612292828b86815181106122845761228361421d565b5b6020026020010151856129f6565b90506122bc8a85815181106122aa576122a961421d565b5b60200260200101518260600151612c53565b6007600084815260200190815260200160002060020160008154809291906122e390614325565b91905055506122f0610dc8565b73ffffffffffffffffffffffffffffffffffffffff168d73ffffffffffffffffffffffffffffffffffffffff16146123c85760006007600085815260200190815260200160002060030160008f73ffffffffffffffffffffffffffffffffffffffff1673ffffffffffffffffffffffffffffffffffffffff16815260200190815260200160002060006101000a81548160ff0219169083151502179055507fa3e2bd1dce9cda387fcfca0a01087ea6bee62e6ff0b692965c749d6ce09eebbc8d846040516123bf9291906140a5565b60405180910390a15b7f12807cecd6b435837fd319b198b056a6ed393d3b55da693e44b214c51d42df8e8b8b86815181106123fd576123fc61421d565b5b60200260200101518584606001518560400151604051612421959493929190614db5565b60405180910390a1505050808061243790614325565b9150506120e6565b505050505b612452868686868686612cb8565b505050505050565b505050505050565b6124818473ffffffffffffffffffffffffffffffffffffffff16612e88565b15612631578373ffffffffffffffffffffffffffffffffffffffff1663bc197c8187878686866040518663ffffffff1660e01b81526004016124c7959493929190614e64565b6020604051808303816000875af192505050801561250357506040513d601f19601f820116820180604052508101906125009190614ee1565b60015b6125a85761250f614f1b565b806308c379a00361256b5750612523614f3d565b8061252e575061256d565b806040517f08c379a0000000000000000000000000000000000000000000000000000000008152600401612562919061347e565b60405180910390fd5b505b6040517f08c379a000000000000000000000000000000000000000000000000000000000815260040161259f9061503f565b60405180910390fd5b63bc197c8160e01b7bffffffffffffffffffffffffffffffffffffffffffffffffffffffff1916817bffffffffffffffffffffffffffffffffffffffffffffffffffffffff19161461262f576040517f08c379a0000000000000000000000000000000000000000000000000000000008152600401612626906150d1565b60405180910390fd5b505b505050505050565b60606000600167ffffffffffffffff811115612658576126576134aa565b5b6040519080825280602002602001820160405280156126865781602001602082028036833780820191505090505b509050828160008151811061269e5761269d61421d565b5b60200260200101818152505080915050919050565b6126d28473ffffffffffffffffffffffffffffffffffffffff16612e88565b15612882578373ffffffffffffffffffffffffffffffffffffffff1663f23a6e6187878686866040518663ffffffff1660e01b81526004016127189594939291906150f1565b6020604051808303816000875af192505050801561275457506040513d601f19601f820116820180604052508101906127519190614ee1565b60015b6127f957612760614f1b565b806308c379a0036127bc5750612774614f3d565b8061277f57506127be565b806040517f08c379a00000000000000000000000000000000000000000000000000000000081526004016127b3919061347e565b60405180910390fd5b505b6040517f08c379a00000000000000000000000000000000000000000000000000000000081526004016127f09061503f565b60405180910390fd5b63f23a6e6160e01b7bffffffffffffffffffffffffffffffffffffffffffffffffffffffff1916817bffffffffffffffffffffffffffffffffffffffffffffffffffffffff191614612880576040517f08c379a0000000000000000000000000000000000000000000000000000000008152600401612877906150d1565b60405180910390fd5b505b505050505050565b612892613172565b600060208301905060405180604001604052808451815260200182815250915050919050565b60008082600001516128dc8560000151866020015186600001518760200151612eab565b6128e691906142f1565b90505b836000015184602001516128fd91906142f1565b811161295957818061290e90614325565b9250508260000151612948856020015183612929919061427b565b8660000151612938919061427b565b8386600001518760200151612eab565b61295291906142f1565b90506128e9565b5092915050565b612968613172565b612973838383612ff4565b5092915050565b60606000826000015167ffffffffffffffff81111561299c5761299b6134aa565b5b6040519080825280601f01601f1916602001820160405280156129ce5781602001600182028036833780820191505090505b50905060006020820190506129ec81856020015186600001516130be565b8192505050919050565b6129fe61318c565b6000612a3e6040518060400160405280600181526020017f2d0000000000000000000000000000000000000000000000000000000000000081525061288a565b90506000612a4b8661288a565b90506000612a61612a5c8385612960565b61297a565b90506000612a77612a728486612960565b61297a565b90506000612a848261099c565b90506007600088815260200190815260200160002060010154811115612adf576040517f08c379a0000000000000000000000000000000000000000000000000000000008152600401612ad6906151bd565b60405180910390fd5b604051806080016040528089815260200188815260200182815260200184815250600860008a81526020019081526020016000206000820151816000015560208201518160010155604082015181600201556060820151816003019081612b469190614628565b5090505080600760008981526020019081526020016000206001016000828254612b70919061427b565b9250508190555060086000898152602001908152602001600020604051806080016040529081600082015481526020016001820154815260200160028201548152602001600382018054612bc390613f0a565b80601f0160208091040260200160405190810160405280929190818152602001828054612bef90613f0a565b8015612c3c5780601f10612c1157610100808354040283529160200191612c3c565b820191906000526020600020905b815481529060010190602001808311612c1f57829003601f168201915b505050505081525050955050505050509392505050565b80600960008481526020019081526020016000209081612c739190614628565b50817f6bb7ff708619ba0610cba295a58592e0451dee2622938c8755667688daf3529b612c9f846108b7565b604051612cac919061347e565b60405180910390a25050565b612cc686868686868661316a565b600073ffffffffffffffffffffffffffffffffffffffff168573ffffffffffffffffffffffffffffffffffffffff1603612d775760005b8351811015612d7557828181518110612d1957612d1861421d565b5b602002602001015160046000868481518110612d3857612d3761421d565b5b602002602001015181526020019081526020016000206000828254612d5d91906142f1565b9250508190555080612d6e90614325565b9050612cfd565b505b600073ffffffffffffffffffffffffffffffffffffffff168473ffffffffffffffffffffffffffffffffffffffff1603612e805760005b8351811015612e7e576000848281518110612dcc57612dcb61421d565b5b602002602001015190506000848381518110612deb57612dea61421d565b5b6020026020010151905060006004600084815260200190815260200160002054905081811015612e50576040517f08c379a0000000000000000000000000000000000000000000000000000000008152600401612e479061524f565b60405180910390fd5b818103600460008581526020019081526020016000208190555050505080612e7790614325565b9050612dae565b505b505050505050565b6000808273ffffffffffffffffffffffffffffffffffffffff163b119050919050565b6000808490506000868511612fdb5760208511612f7e57600080861115612f04576001866020612edb919061427b565b6008612ee791906142af565b6002612ef391906153a2565b612efd919061427b565b1960001b90505b60008186511690506000878a8a612f1b91906142f1565b612f25919061427b565b905060008386511690505b828114612f7057818610612f57578a8a612f4a91906142f1565b9650505050505050612fec565b8580612f6290614325565b965050838651169050612f30565b859650505050505050612fec565b60008585209050600091505b8588612f96919061427b565b8211612fd95760008684209050808203612fb65783945050505050612fec565b600184612fc391906142f1565b9350508180612fd190614325565b925050612f8a565b505b8686612fe791906142f1565b925050505b949350505050565b612ffc613172565b600061301a8560000151866020015186600001518760200151612eab565b9050846020015183602001818152505084602001518161303a919061427b565b8360000181815250508460000151856020015161305791906142f1565b810361306d5760008560000181815250506130b3565b8360000151836000015161308191906142f1565b85600001818151613092919061427b565b915081815250508360000151816130a991906142f1565b8560200181815250505b829150509392505050565b5b602081106130fd57815183526020836130d891906142f1565b92506020826130e791906142f1565b91506020816130f6919061427b565b90506130bf565b60007fffffffffffffffffffffffffffffffffffffffffffffffffffffffffffffffff9050600082111561315457600182602061313a919061427b565b61010061314791906153a2565b613151919061427b565b90505b8019835116818551168181178652505050505050565b505050505050565b604051806040016040528060008152602001600081525090565b6040518060800160405280600081526020016000815260200160008152602001606081525090565b6000604051905090565b600080fd5b600080fd5b600073ffffffffffffffffffffffffffffffffffffffff82169050919050565b60006131f3826131c8565b9050919050565b613203816131e8565b811461320e57600080fd5b50565b600081359050613220816131fa565b92915050565b6000819050919050565b61323981613226565b811461324457600080fd5b50565b60008135905061325681613230565b92915050565b60008060408385031215613273576132726131be565b5b600061328185828601613211565b925050602061329285828601613247565b9150509250929050565b6132a581613226565b82525050565b60006020820190506132c0600083018461329c565b92915050565b60007fffffffff0000000000000000000000000000000000000000000000000000000082169050919050565b6132fb816132c6565b811461330657600080fd5b50565b600081359050613318816132f2565b92915050565b600060208284031215613334576133336131be565b5b600061334284828501613309565b91505092915050565b60008115159050919050565b6133608161334b565b82525050565b600060208201905061337b6000830184613357565b92915050565b60008060408385031215613398576133976131be565b5b60006133a685828601613247565b92505060206133b785828601613211565b9150509250929050565b6000602082840312156133d7576133d66131be565b5b60006133e584828501613247565b91505092915050565b600081519050919050565b600082825260208201905092915050565b60005b8381101561342857808201518184015260208101905061340d565b60008484015250505050565b6000601f19601f8301169050919050565b6000613450826133ee565b61345a81856133f9565b935061346a81856020860161340a565b61347381613434565b840191505092915050565b600060208201905081810360008301526134988184613445565b905092915050565b600080fd5b600080fd5b7f4e487b7100000000000000000000000000000000000000000000000000000000600052604160045260246000fd5b6134e282613434565b810181811067ffffffffffffffff82111715613501576135006134aa565b5b80604052505050565b60006135146131b4565b905061352082826134d9565b919050565b600067ffffffffffffffff8211156135405761353f6134aa565b5b61354982613434565b9050602081019050919050565b82818337600083830152505050565b600061357861357384613525565b61350a565b905082815260208101848484011115613594576135936134a5565b5b61359f848285613556565b509392505050565b600082601f8301126135bc576135bb6134a0565b5b81356135cc848260208601613565565b91505092915050565b6000602082840312156135eb576135ea6131be565b5b600082013567ffffffffffffffff811115613609576136086131c3565b5b613615848285016135a7565b91505092915050565b600067ffffffffffffffff821115613639576136386134aa565b5b602082029050602081019050919050565b600080fd5b600061366261365d8461361e565b61350a565b905080838252602082019050602084028301858111156136855761368461364a565b5b835b818110156136ae578061369a8882613247565b845260208401935050602081019050613687565b5050509392505050565b600082601f8301126136cd576136cc6134a0565b5b81356136dd84826020860161364f565b91505092915050565b600067ffffffffffffffff821115613701576137006134aa565b5b61370a82613434565b9050602081019050919050565b600061372a613725846136e6565b61350a565b905082815260208101848484011115613746576137456134a5565b5b613751848285613556565b509392505050565b600082601f83011261376e5761376d6134a0565b5b813561377e848260208601613717565b91505092915050565b600080600080608085870312156137a1576137a06131be565b5b60006137af87828801613211565b945050602085013567ffffffffffffffff8111156137d0576137cf6131c3565b5b6137dc878288016136b8565b935050604085013567ffffffffffffffff8111156137fd576137fc6131c3565b5b613809878288016136b8565b925050606085013567ffffffffffffffff81111561382a576138296131c3565b5b61383687828801613759565b91505092959194509250565b600080600080600060a0868803121561385e5761385d6131be565b5b600061386c88828901613211565b955050602061387d88828901613211565b945050604086013567ffffffffffffffff81111561389e5761389d6131c3565b5b6138aa888289016136b8565b935050606086013567ffffffffffffffff8111156138cb576138ca6131c3565b5b6138d7888289016136b8565b925050608086013567ffffffffffffffff8111156138f8576138f76131c3565b5b61390488828901613759565b9150509295509295909350565b600067ffffffffffffffff82111561392c5761392b6134aa565b5b602082029050602081019050919050565b600061395061394b84613911565b61350a565b905080838252602082019050602084028301858111156139735761397261364a565b5b835b8181101561399c57806139888882613211565b845260208401935050602081019050613975565b5050509392505050565b600082601f8301126139bb576139ba6134a0565b5b81356139cb84826020860161393d565b91505092915050565b600080604083850312156139eb576139ea6131be565b5b600083013567ffffffffffffffff811115613a0957613a086131c3565b5b613a15858286016139a6565b925050602083013567ffffffffffffffff811115613a3657613a356131c3565b5b613a42858286016136b8565b9150509250929050565b600081519050919050565b600082825260208201905092915050565b6000819050602082019050919050565b613a8181613226565b82525050565b6000613a938383613a78565b60208301905092915050565b6000602082019050919050565b6000613ab782613a4c565b613ac18185613a57565b9350613acc83613a68565b8060005b83811015613afd578151613ae48882613a87565b9750613aef83613a9f565b925050600181019050613ad0565b5085935050505092915050565b60006020820190508181036000830152613b248184613aac565b905092915050565b60008060008060808587031215613b4657613b456131be565b5b6000613b5487828801613211565b9450506020613b6587828801613247565b9350506040613b7687828801613247565b925050606085013567ffffffffffffffff811115613b9757613b966131c3565b5b613ba387828801613759565b91505092959194509250565b6000604082019050613bc4600083018561329c565b8181036020830152613bd68184613445565b90509392505050565b613be8816131e8565b82525050565b6000602082019050613c036000830184613bdf565b92915050565b6000819050919050565b613c1c81613c09565b8114613c2757600080fd5b50565b600081359050613c3981613c13565b92915050565b60008060408385031215613c5657613c556131be565b5b600083013567ffffffffffffffff811115613c7457613c736131c3565b5b613c80858286016135a7565b9250506020613c9185828601613c2a565b9150509250929050565b613ca48161334b565b8114613caf57600080fd5b50565b600081359050613cc181613c9b565b92915050565b60008060408385031215613cde57613cdd6131be565b5b6000613cec85828601613211565b9250506020613cfd85828601613cb2565b9150509250929050565b60008060408385031215613d1e57613d1d6131be565b5b6000613d2c85828601613211565b9250506020613d3d85828601613211565b9150509250929050565b600080600080600060a08688031215613d6357613d626131be565b5b6000613d7188828901613211565b9550506020613d8288828901613211565b9450506040613d9388828901613247565b9350506060613da488828901613247565b925050608086013567ffffffffffffffff811115613dc557613dc46131c3565b5b613dd188828901613759565b9150509295509295909350565b600060208284031215613df457613df36131be565b5b6000613e0284828501613211565b91505092915050565b60006060820190508181036000830152613e258186613445565b9050613e34602083018561329c565b613e41604083018461329c565b949350505050565b7f455243313135353a2061646472657373207a65726f206973206e6f742061207660008201527f616c6964206f776e657200000000000000000000000000000000000000000000602082015250565b6000613ea5602a836133f9565b9150613eb082613e49565b604082019050919050565b60006020820190508181036000830152613ed481613e98565b9050919050565b7f4e487b7100000000000000000000000000000000000000000000000000000000600052602260045260246000fd5b60006002820490506001821680613f2257607f821691505b602082108103613f3557613f34613edb565b5b50919050565b7f436f6c6c656374696f6e20646f6573206e6f7420657869737400000000000000600082015250565b6000613f716019836133f9565b9150613f7c82613f3b565b602082019050919050565b60006020820190508181036000830152613fa081613f64565b9050919050565b7f436f6e7472616374206f776e657220697320616c726561647920616c6c6f776560008201527f6420746f206d696e7420746f6b656e7300000000000000000000000000000000602082015250565b60006140036030836133f9565b915061400e82613fa7565b604082019050919050565b6000602082019050818103600083015261403281613ff6565b9050919050565b7f4164647265737320697320616c726561647920616c6c6f776564000000000000600082015250565b600061406f601a836133f9565b915061407a82614039565b602082019050919050565b6000602082019050818103600083015261409e81614062565b9050919050565b60006040820190506140ba6000830185613bdf565b6140c7602083018461329c565b9392505050565b600081905092915050565b60008190508160005260206000209050919050565b600081546140fb81613f0a565b61410581866140ce565b94506001821660008114614120576001811461413557614168565b60ff1983168652811515820286019350614168565b61413e856140d9565b60005b8381101561416057815481890152600182019150602081019050614141565b838801955050505b50505092915050565b600061417c826133ee565b61418681856140ce565b935061419681856020860161340a565b80840191505092915050565b7f2f6d657461646174612e6a736f6e000000000000000000000000000000000000600082015250565b60006141d8600e836140ce565b91506141e3826141a2565b600e82019050919050565b60006141fa82856140ee565b91506142068284614171565b9150614211826141cb565b91508190509392505050565b7f4e487b7100000000000000000000000000000000000000000000000000000000600052603260045260246000fd5b7f4e487b7100000000000000000000000000000000000000000000000000000000600052601160045260246000fd5b600061428682613226565b915061429183613226565b92508282039050818111156142a9576142a861424c565b5b92915050565b60006142ba82613226565b91506142c583613226565b92508282026142d381613226565b915082820484148315176142ea576142e961424c565b5b5092915050565b60006142fc82613226565b915061430783613226565b925082820190508082111561431f5761431e61424c565b5b92915050565b600061433082613226565b91507fffffffffffffffffffffffffffffffffffffffffffffffffffffffffffffffff82036143625761436161424c565b5b600182019050919050565b7f455243313135353a2063616c6c6572206973206e6f7420746f6b656e206f776e60008201527f6572206f7220617070726f766564000000000000000000000000000000000000602082015250565b60006143c9602e836133f9565b91506143d48261436d565b604082019050919050565b600060208201905081810360008301526143f8816143bc565b9050919050565b7f455243313135353a206163636f756e747320616e6420696473206c656e67746860008201527f206d69736d617463680000000000000000000000000000000000000000000000602082015250565b600061445b6029836133f9565b9150614466826143ff565b604082019050919050565b6000602082019050818103600083015261448a8161444e565b9050919050565b60006020601f8301049050919050565b600082821b905092915050565b6000600883026144de7fffffffffffffffffffffffffffffffffffffffffffffffffffffffffffffffff826144a1565b6144e886836144a1565b95508019841693508086168417925050509392505050565b6000819050919050565b600061452561452061451b84613226565b614500565b613226565b9050919050565b6000819050919050565b61453f8361450a565b61455361454b8261452c565b8484546144ae565b825550505050565b600090565b61456861455b565b614573818484614536565b505050565b5b818110156145975761458c600082614560565b600181019050614579565b5050565b601f8211156145dc576145ad816140d9565b6145b684614491565b810160208510156145c5578190505b6145d96145d185614491565b830182614578565b50505b505050565b600082821c905092915050565b60006145ff600019846008026145e1565b1980831691505092915050565b600061461883836145ee565b9150826002028217905092915050565b614631826133ee565b67ffffffffffffffff81111561464a576146496134aa565b5b6146548254613f0a565b61465f82828561459b565b600060209050601f8311600181146146925760008415614680578287015190505b61468a858261460c565b8655506146f2565b601f1984166146a0866140d9565b60005b828110156146c8578489015182556001820191506020850194506020810190506146a3565b868310156146e557848901516146e1601f8916826145ee565b8355505b6001600288020188555050505b505050505050565b61470381613c09565b82525050565b600060608201905081810360008301526147238186613445565b9050614732602083018561329c565b61473f60408301846146fa565b949350505050565b7f41646472657373206973206e6f742061206d696e746572000000000000000000600082015250565b600061477d6017836133f9565b915061478882614747565b602082019050919050565b600060208201905081810360008301526147ac81614770565b9050919050565b7f4f776e61626c653a206e6577206f776e657220697320746865207a65726f206160008201527f6464726573730000000000000000000000000000000000000000000000000000602082015250565b600061480f6026836133f9565b915061481a826147b3565b604082019050919050565b6000602082019050818103600083015261483e81614802565b9050919050565b7f4f776e61626c653a2063616c6c6572206973206e6f7420746865206f776e6572600082015250565b600061487b6020836133f9565b915061488682614845565b602082019050919050565b600060208201905081810360008301526148aa8161486e565b9050919050565b7f455243313135353a206d696e7420746f20746865207a65726f2061646472657360008201527f7300000000000000000000000000000000000000000000000000000000000000602082015250565b600061490d6021836133f9565b9150614918826148b1565b604082019050919050565b6000602082019050818103600083015261493c81614900565b9050919050565b7f455243313135353a2069647320616e6420616d6f756e7473206c656e6774682060008201527f6d69736d61746368000000000000000000000000000000000000000000000000602082015250565b600061499f6028836133f9565b91506149aa82614943565b604082019050919050565b600060208201905081810360008301526149ce81614992565b9050919050565b600060408201905081810360008301526149ef8185613aac565b90508181036020830152614a038184613aac565b90509392505050565b7f455243313135353a207472616e7366657220746f20746865207a65726f20616460008201527f6472657373000000000000000000000000000000000000000000000000000000602082015250565b6000614a686025836133f9565b9150614a7382614a0c565b604082019050919050565b60006020820190508181036000830152614a9781614a5b565b9050919050565b7f455243313135353a20696e73756666696369656e742062616c616e636520666f60008201527f72207472616e7366657200000000000000000000000000000000000000000000602082015250565b6000614afa602a836133f9565b9150614b0582614a9e565b604082019050919050565b60006020820190508181036000830152614b2981614aed565b9050919050565b6000604082019050614b45600083018561329c565b614b52602083018461329c565b9392505050565b7f455243313135353a2073657474696e6720617070726f76616c2073746174757360008201527f20666f722073656c660000000000000000000000000000000000000000000000602082015250565b6000614bb56029836133f9565b9150614bc082614b59565b604082019050919050565b60006020820190508181036000830152614be481614ba8565b9050919050565b7f546f6b656e20616c726561647920657869737473000000000000000000000000600082015250565b6000614c216014836133f9565b9150614c2c82614beb565b602082019050919050565b60006020820190508181036000830152614c5081614c14565b9050919050565b7f4e487b7100000000000000000000000000000000000000000000000000000000600052601260045260246000fd5b6000614c9182613226565b9150614c9c83613226565b925082614cac57614cab614c57565b5b828204905092915050565b7f57726f6e6720746f6b656e2069642073657175656e6365000000000000000000600082015250565b6000614ced6017836133f9565b9150614cf882614cb7565b602082019050919050565b60006020820190508181036000830152614d1c81614ce0565b9050919050565b7f41646472657373206e6f7420616c6c6f77656420746f206d696e74206e65772060008201527f746f6b656e730000000000000000000000000000000000000000000000000000602082015250565b6000614d7f6026836133f9565b9150614d8a82614d23565b604082019050919050565b60006020820190508181036000830152614dae81614d72565b9050919050565b600060a082019050614dca6000830188613bdf565b614dd7602083018761329c565b614de4604083018661329c565b8181036060830152614df68185613445565b9050614e05608083018461329c565b9695505050505050565b600081519050919050565b600082825260208201905092915050565b6000614e3682614e0f565b614e408185614e1a565b9350614e5081856020860161340a565b614e5981613434565b840191505092915050565b600060a082019050614e796000830188613bdf565b614e866020830187613bdf565b8181036040830152614e988186613aac565b90508181036060830152614eac8185613aac565b90508181036080830152614ec08184614e2b565b90509695505050505050565b600081519050614edb816132f2565b92915050565b600060208284031215614ef757614ef66131be565b5b6000614f0584828501614ecc565b91505092915050565b60008160e01c9050919050565b600060033d1115614f3a5760046000803e614f37600051614f0e565b90505b90565b600060443d10614fca57614f4f6131b4565b60043d036004823e80513d602482011167ffffffffffffffff82111715614f77575050614fca565b808201805167ffffffffffffffff811115614f955750505050614fca565b80602083010160043d038501811115614fb2575050505050614fca565b614fc1826020018501866134d9565b82955050505050505b90565b7f455243313135353a207472616e7366657220746f206e6f6e2d4552433131353560008201527f526563656976657220696d706c656d656e746572000000000000000000000000602082015250565b60006150296034836133f9565b915061503482614fcd565b604082019050919050565b600060208201905081810360008301526150588161501c565b9050919050565b7f455243313135353a204552433131353552656365697665722072656a6563746560008201527f6420746f6b656e73000000000000000000000000000000000000000000000000602082015250565b60006150bb6028836133f9565b91506150c68261505f565b604082019050919050565b600060208201905081810360008301526150ea816150ae565b9050919050565b600060a0820190506151066000830188613bdf565b6151136020830187613bdf565b615120604083018661329c565b61512d606083018561329c565b818103608083015261513f8184614e2b565b90509695505050505050565b7f4e6f7420656e6f756768207368617265206c65667420666f722074686973206360008201527f6f6c6c656374696f6e0000000000000000000000000000000000000000000000602082015250565b60006151a76029836133f9565b91506151b28261514b565b604082019050919050565b600060208201905081810360008301526151d68161519a565b9050919050565b7f455243313135353a206275726e20616d6f756e74206578636565647320746f7460008201527f616c537570706c79000000000000000000000000000000000000000000000000602082015250565b60006152396028836133f9565b9150615244826151dd565b604082019050919050565b600060208201905081810360008301526152688161522c565b9050919050565b60008160011c9050919050565b6000808291508390505b60018511156152c6578086048111156152a2576152a161424c565b5b60018516156152b15780820291505b80810290506152bf8561526f565b9450615286565b94509492505050565b6000826152df576001905061539b565b816152ed576000905061539b565b8160018114615303576002811461530d5761533c565b600191505061539b565b60ff84111561531f5761531e61424c565b5b8360020a9150848211156153365761533561424c565b5b5061539b565b5060208310610133831016604e8410600b84101617156153715782820a90508381111561536c5761536b61424c565b5b61539b565b61537e848484600161527c565b925090508184048111156153955761539461424c565b5b81810290505b9392505050565b60006153ad82613226565b91506153b883613226565b92506153e57fffffffffffffffffffffffffffffffffffffffffffffffffffffffffffffffff84846152cf565b90509291505056fea2646970667358221220ee929fe2af2675787a8ace5b190a870d60a77754626d44abd2af80edb2abac2264736f6c6343000811003368747470733a2f2f6173736574732e66616e7469756d2e6f6c6d61796774692e636f6d2f746f6b656e732f247b69647d2e6a736f6e",
  "immutableReferences": {},
  "source": "pragma solidity ^0.8.17;\n\nimport \"@openzeppelin/contracts/token/ERC1155/ERC1155.sol\";\nimport \"@openzeppelin/contracts/access/Ownable.sol\";\nimport \"@openzeppelin/contracts/token/ERC1155/extensions/ERC1155Supply.sol\";\nimport \"./utils/strings.sol\";\n\ncontract FantiumMetaToken is ERC1155, Ownable, ERC1155Supply {\n    event NewCollection(string description, uint256 collectionId, int256 correlationId);\n    event MinterAllowed(address addr, uint256 collectionId);\n    event MinterRevoked(address addr, uint256 collectionId);\n\n    event TokenMinted(address owner, uint256 tokenId, uint256 collectionId, string tokenUri, uint256 share);\n\n    uint256 public constant MAX_TOKENS_PER_COLLECTION = 100000;\n    uint256 collectionCounter;\n\n    string private _baseURI;\n\n    struct TokenCollection {\n        string description;\n        uint256 shareLeft;\n        uint256 supply;\n        mapping(address => bool) approvedMinters;\n    }\n\n    struct CollectionToken {\n        uint256 id;\n        uint256 collectionId;\n        uint256 share;\n        string tokenUri;\n    }\n\n    mapping(uint256 => TokenCollection) public collections;\n    mapping(uint256 => CollectionToken) private _tokens;\n    mapping(uint256 => string) private _tokenURIs;\n\n    constructor() ERC1155(\"https://assets.fantium.olmaygti.com/tokens/${id}.json\") {\n        _setBaseURI(\"https://ipfs.io/ipfs/\");\n        collectionCounter = 0;\n    }\n\n    function addNewCollection(string memory description, int256 correlationId) external onlyOwner {\n        TokenCollection storage newCollection = collections[collectionCounter];\n        newCollection.description = description;\n        newCollection.shareLeft = 100000;\n        newCollection.supply = 0;\n        emit NewCollection(description, collectionCounter++, correlationId);\n    }\n\n    function allowMinter(uint256 collection, address allowedAddress) external onlyOwner {\n        require(bytes(collections[collection].description).length > 0, \"Collection does not exist\");\n        require(allowedAddress != owner(), \"Contract owner is already allowed to mint tokens\");\n        require(!collections[collection].approvedMinters[allowedAddress], \"Address is already allowed\");\n        collections[collection].approvedMinters[allowedAddress] = true;\n        emit MinterAllowed(allowedAddress, collection);\n    }\n\n\n    function revokeMinter(uint256 collection, address revokedAddress) external onlyOwner {\n        require(bytes(collections[collection].description).length > 0, \"Collection does not exist\");\n        require(collections[collection].approvedMinters[revokedAddress], \"Address is not a minter\");\n        collections[collection].approvedMinters[revokedAddress] = false;\n        emit MinterRevoked(revokedAddress, collection);\n    }\n\n    function isAllowedToMint(uint256 collection, address addr) public view returns (bool) {\n        return owner() == addr || collections[collection].approvedMinters[addr];\n    }\n\n    function mint(address account, uint256 id, uint256 amount, bytes memory data) public {\n        _mint(account, id, amount, data);\n    }\n\n    function mintBatch(address to, uint256[] memory ids, uint256[] memory amounts, bytes memory data) public {\n        _mintBatch(to, ids, amounts, data);\n    }\n\n    function _beforeTokenTransfer(address operator, address from, address to, uint256[] memory ids, uint256[] memory amounts, bytes memory data)\n        internal\n        override(ERC1155, ERC1155Supply)\n    {\n        if (from == address(0)) { // We're minting\n            strings.slice memory s = strings.toSlice(string(data));\n            strings.slice memory tokenDelimiter = strings.toSlice(\",\");\n            uint urisSize = strings.count(s, tokenDelimiter) + 1;\n            require(urisSize == ids.length);\n\n            for(uint i = 0; i < ids.length; i++) {\n                require(totalSupply(ids[i]) == 0, \"Token already exists\");\n\n                uint256 collectionId = ids[i] / (MAX_TOKENS_PER_COLLECTION);\n\n                require(collections[collectionId].supply == (ids[i] - (collectionId * MAX_TOKENS_PER_COLLECTION)), \"Wrong token id sequence\");\n                require(isAllowedToMint(collectionId, operator), \"Address not allowed to mint new tokens\");\n\n\n                string memory tokenInfo = strings.toString(strings.split(s, tokenDelimiter));\n\n                CollectionToken memory tokenDetails  = _newTokenDetails(tokenInfo, ids[i], collectionId);\n\n                _setURI(ids[i], tokenDetails.tokenUri);\n\n                collections[collectionId].supply++;\n\n                if (operator != owner()) {\n                    collections[collectionId].approvedMinters[operator] = false;\n                    emit MinterRevoked(operator, collectionId);\n                }\n\n                emit TokenMinted(to, ids[i], collectionId, tokenDetails.tokenUri, tokenDetails.share);\n            }\n        }\n        super._beforeTokenTransfer(operator, from, to, ids, amounts, data);\n    }\n\n    function _newTokenDetails(string memory tokenData, uint256 tokenId, uint256 collectionId) private returns (CollectionToken memory) {\n        strings.slice memory inTokenDelimiter = strings.toSlice(\"-\");\n        strings.slice memory left = strings.toSlice(tokenData);\n\n        string memory tokenURI = strings.toString(strings.split(left, inTokenDelimiter));\n        string memory stringShare = strings.toString(strings.split(left, inTokenDelimiter));\n\n        uint tokenShare = stringToUint(stringShare);\n\n        require(tokenShare <= collections[collectionId].shareLeft, \"Not enough share left for this collection\");\n\n        _tokens[tokenId] = CollectionToken(tokenId, collectionId, tokenShare, tokenURI);\n\n        collections[collectionId].shareLeft -= tokenShare;\n\n        return _tokens[tokenId];\n\n    }\n\n\n\n    // Customized from OpenZeppelin's ERC1155URIStorage contract\n    function uri(uint256 tokenId) public view virtual override returns (string memory) {\n        string memory tokenURI = _tokenURIs[tokenId];\n        // If token URI is set, concatenate base URI and tokenURI (via abi.encodePacked).\n        return bytes(tokenURI).length > 0 ? string(abi.encodePacked(_baseURI, tokenURI, \"/metadata.json\")) : super.uri(tokenId);\n    }\n\n    /**\n     * @dev Sets `tokenURI` as the tokenURI of `tokenId`.\n     */\n    function _setURI(uint256 tokenId, string memory tokenURI) internal virtual {\n        _tokenURIs[tokenId] = tokenURI;\n        emit URI(uri(tokenId), tokenId);\n    }\n\n    /**\n     * @dev Sets `baseURI` as the `_baseURI` for all tokens\n     */\n    function _setBaseURI(string memory baseURI) internal virtual {\n        _baseURI = baseURI;\n    }\n\n    function collectionTotalSupply(uint256 collectionId) public view returns (uint256) {\n        return collections[collectionId].supply;\n    }\n\n    function getTokenInfo(uint256 tokenId) external view returns (uint256, string memory) {\n        return (_tokens[tokenId].share, _tokens[tokenId].tokenUri);\n    }\n\n    function stringToUint(string memory s) public pure returns (uint) {\n        bytes memory b = bytes(s);\n        uint result = 0;\n        for (uint256 i = 0; i < b.length; i++) {\n            uint256 c = uint256(uint8(b[i]));\n            if (c >= 48 && c <= 57) {\n                result = result * 10 + (c - 48);\n            }\n        }\n        return result;\n    }\n}",
  "sourcePath": "/home/olmaygti/Workspace/fantium/contracts/contracts/FantiumMetaToken.sol",
  "compiler": {
    "name": "solc",
    "version": "0.8.17+commit.8df45f5f.Emscripten.clang"
  },
  "schemaVersion": "3.4.11",
  "updatedAt": "2023-01-05T16:43:22.504Z",
  "networkType": "ethereum",
  "devdoc": {
    "kind": "dev",
    "methods": {
      "balanceOf(address,uint256)": {
        "details": "See {IERC1155-balanceOf}. Requirements: - `account` cannot be the zero address."
      },
      "balanceOfBatch(address[],uint256[])": {
        "details": "See {IERC1155-balanceOfBatch}. Requirements: - `accounts` and `ids` must have the same length."
      },
      "exists(uint256)": {
        "details": "Indicates whether any token exist with a given id, or not."
      },
      "isApprovedForAll(address,address)": {
        "details": "See {IERC1155-isApprovedForAll}."
      },
      "owner()": {
        "details": "Returns the address of the current owner."
      },
      "renounceOwnership()": {
        "details": "Leaves the contract without owner. It will not be possible to call `onlyOwner` functions anymore. Can only be called by the current owner. NOTE: Renouncing ownership will leave the contract without an owner, thereby removing any functionality that is only available to the owner."
      },
      "safeBatchTransferFrom(address,address,uint256[],uint256[],bytes)": {
        "details": "See {IERC1155-safeBatchTransferFrom}."
      },
      "safeTransferFrom(address,address,uint256,uint256,bytes)": {
        "details": "See {IERC1155-safeTransferFrom}."
      },
      "setApprovalForAll(address,bool)": {
        "details": "See {IERC1155-setApprovalForAll}."
      },
      "supportsInterface(bytes4)": {
        "details": "See {IERC165-supportsInterface}."
      },
      "totalSupply(uint256)": {
        "details": "Total amount of tokens in with a given id."
      },
      "transferOwnership(address)": {
        "details": "Transfers ownership of the contract to a new account (`newOwner`). Can only be called by the current owner."
      }
    },
    "version": 1
  },
  "userdoc": {
    "kind": "user",
    "methods": {},
    "version": 1
  }
}